{
  "contractName": "Voting",
  "abi": [
    {
      "inputs": [],
      "stateMutability": "nonpayable",
      "type": "constructor"
    },
    {
      "anonymous": false,
      "inputs": [
        {
          "indexed": false,
          "internalType": "uint256",
          "name": "proposal",
          "type": "uint256"
        }
      ],
      "name": "Close",
      "type": "event"
    },
    {
      "anonymous": false,
      "inputs": [
        {
          "components": [
            {
              "internalType": "bytes32",
              "name": "name",
              "type": "bytes32"
            },
            {
              "internalType": "uint256",
              "name": "voteCount",
              "type": "uint256"
            },
            {
              "internalType": "uint256",
              "name": "startDate",
              "type": "uint256"
            },
            {
              "internalType": "uint256",
              "name": "endDate",
              "type": "uint256"
            },
            {
              "internalType": "bool",
              "name": "closed",
              "type": "bool"
            }
          ],
          "indexed": false,
          "internalType": "struct Voting.Proposal",
          "name": "proposal",
          "type": "tuple"
        }
      ],
      "name": "CreateProposal",
      "type": "event"
    },
    {
      "anonymous": false,
      "inputs": [
        {
          "indexed": false,
          "internalType": "uint256",
          "name": "proposal",
          "type": "uint256"
        }
      ],
      "name": "UserVote",
      "type": "event"
    },
    {
      "inputs": [],
      "name": "owner",
      "outputs": [
        {
          "internalType": "address",
          "name": "",
          "type": "address"
        }
      ],
      "stateMutability": "view",
      "type": "function",
      "constant": true
    },
    {
      "inputs": [
        {
          "internalType": "uint256",
          "name": "",
          "type": "uint256"
        }
      ],
      "name": "proposals",
      "outputs": [
        {
          "internalType": "bytes32",
          "name": "name",
          "type": "bytes32"
        },
        {
          "internalType": "uint256",
          "name": "voteCount",
          "type": "uint256"
        },
        {
          "internalType": "uint256",
          "name": "startDate",
          "type": "uint256"
        },
        {
          "internalType": "uint256",
          "name": "endDate",
          "type": "uint256"
        },
        {
          "internalType": "bool",
          "name": "closed",
          "type": "bool"
        }
      ],
      "stateMutability": "view",
      "type": "function",
      "constant": true
    },
    {
      "inputs": [
        {
          "internalType": "bytes32",
          "name": "_proposalName",
          "type": "bytes32"
        },
        {
          "internalType": "uint256",
          "name": "_endDate",
          "type": "uint256"
        }
      ],
      "name": "create",
      "outputs": [],
      "stateMutability": "nonpayable",
      "type": "function"
    },
    {
      "inputs": [
        {
          "internalType": "uint256",
          "name": "_proposal",
          "type": "uint256"
        }
      ],
      "name": "close",
      "outputs": [],
      "stateMutability": "nonpayable",
      "type": "function"
    },
    {
      "inputs": [
        {
          "internalType": "uint256",
          "name": "_proposal",
          "type": "uint256"
        },
        {
          "internalType": "bytes32",
          "name": "_proposalName",
          "type": "bytes32"
        }
      ],
      "name": "update",
      "outputs": [],
      "stateMutability": "nonpayable",
      "type": "function"
    },
    {
      "inputs": [
        {
          "internalType": "uint256",
          "name": "_proposal",
          "type": "uint256"
        },
        {
          "internalType": "enum Voting.Vote",
          "name": "_vote",
          "type": "uint8"
        }
      ],
      "name": "vote",
      "outputs": [],
      "stateMutability": "nonpayable",
      "type": "function"
    },
    {
      "inputs": [],
      "name": "getProposalsAndUserVotes",
      "outputs": [
        {
          "components": [
            {
              "internalType": "bytes32",
              "name": "name",
              "type": "bytes32"
            },
            {
              "internalType": "uint256",
              "name": "voteCount",
              "type": "uint256"
            },
            {
              "internalType": "uint256",
              "name": "startDate",
              "type": "uint256"
            },
            {
              "internalType": "uint256",
              "name": "endDate",
              "type": "uint256"
            },
            {
              "internalType": "bool",
              "name": "closed",
              "type": "bool"
            }
          ],
          "internalType": "struct Voting.Proposal[]",
          "name": "",
          "type": "tuple[]"
        },
        {
          "internalType": "uint256[]",
          "name": "",
          "type": "uint256[]"
        }
      ],
      "stateMutability": "view",
      "type": "function",
      "constant": true
    },
    {
      "inputs": [
        {
          "internalType": "uint256",
          "name": "_proposal",
          "type": "uint256"
        }
      ],
      "name": "getProposal",
      "outputs": [
        {
          "components": [
            {
              "internalType": "bytes32",
              "name": "name",
              "type": "bytes32"
            },
            {
              "internalType": "uint256",
              "name": "voteCount",
              "type": "uint256"
            },
            {
              "internalType": "uint256",
              "name": "startDate",
              "type": "uint256"
            },
            {
              "internalType": "uint256",
              "name": "endDate",
              "type": "uint256"
            },
            {
              "internalType": "bool",
              "name": "closed",
              "type": "bool"
            }
          ],
          "internalType": "struct Voting.Proposal",
          "name": "",
          "type": "tuple"
        }
      ],
      "stateMutability": "view",
      "type": "function",
      "constant": true
    }
  ],
  "bytecode": "0x608060405234801561001057600080fd5b5033600160006101000a81548173ffffffffffffffffffffffffffffffffffffffff021916908373ffffffffffffffffffffffffffffffffffffffff1602179055506116c6806100616000396000f3fe608060405234801561001057600080fd5b50600436106100885760003560e01c8063943e82161161005b578063943e82161461011a578063a042c13214610136578063c7f758a814610152578063d3b7576c1461018257610088565b8063013cf08b1461008d5780630aebeb4e146100c157806384c4a05b146100dd5780638da5cb5b146100fc575b600080fd5b6100a760048036038101906100a29190610e4a565b61019e565b6040516100b8959493929190611257565b60405180910390f35b6100db60048036038101906100d69190610e4a565b6101f1565b005b6100e5610495565b6040516100f3929190611220565b60405180910390f35b6101046105cf565b6040516101119190611205565b60405180910390f35b610134600480360381019061012f9190610eaf565b6105f5565b005b610150600480360381019061014b9190610e0e565b6109d4565b005b61016c60048036038101906101679190610e4a565b610bcb565b604051610179919061138a565b60405180910390f35b61019c60048036038101906101979190610e73565b610c70565b005b600081815481106101ae57600080fd5b90600052602060002090600502016000915090508060000154908060010154908060020154908060030154908060040160009054906101000a900460ff16905085565b600160009054906101000a900473ffffffffffffffffffffffffffffffffffffffff1673ffffffffffffffffffffffffffffffffffffffff163373ffffffffffffffffffffffffffffffffffffffff1614610281576040517f08c379a00000000000000000000000000000000000000000000000000000000081526004016102789061136a565b60405180910390fd5b8060001515600082815481106102c0577f4e487b7100000000000000000000000000000000000000000000000000000000600052603260045260246000fd5b906000526020600020906005020160040160009054906101000a900460ff16151514610321576040517f08c379a00000000000000000000000000000000000000000000000000000000081526004016103189061134a565b60405180910390fd5b6000818154811061035b577f4e487b7100000000000000000000000000000000000000000000000000000000600052603260045260246000fd5b9060005260206000209060050201600301544211156103af576040517f08c379a00000000000000000000000000000000000000000000000000000000081526004016103a6906112aa565b60405180910390fd5b60008054905082106103f6576040517f08c379a00000000000000000000000000000000000000000000000000000000081526004016103ed906112ea565b60405180910390fd5b600160008381548110610432577f4e487b7100000000000000000000000000000000000000000000000000000000600052603260045260246000fd5b906000526020600020906005020160040160006101000a81548160ff0219169083151502179055507fbf67515a38ee520223d32c1266d52101c30d936ed1f3e436c8caeb0a43cb06bf8260405161048991906113a5565b60405180910390a15050565b6060806000600360003373ffffffffffffffffffffffffffffffffffffffff1673ffffffffffffffffffffffffffffffffffffffff16815260200190815260200160002081805480602002602001604051908101604052809291908181526020016000905b8282101561056f57838290600052602060002090600502016040518060a0016040529081600082015481526020016001820154815260200160028201548152602001600382015481526020016004820160009054906101000a900460ff161515151581525050815260200190600101906104fa565b505050509150808054806020026020016040519081016040528092919081815260200182805480156105c057602002820191906000526020600020905b8154815260200190600101908083116105ac575b50505050509050915091509091565b600160009054906101000a900473ffffffffffffffffffffffffffffffffffffffff1681565b816000151560008281548110610634577f4e487b7100000000000000000000000000000000000000000000000000000000600052603260045260246000fd5b906000526020600020906005020160040160009054906101000a900460ff16151514610695576040517f08c379a000000000000000000000000000000000000000000000000000000000815260040161068c9061134a565b60405180910390fd5b600081815481106106cf577f4e487b7100000000000000000000000000000000000000000000000000000000600052603260045260246000fd5b906000526020600020906005020160030154421115610723576040517f08c379a000000000000000000000000000000000000000000000000000000000815260040161071a906112aa565b60405180910390fd5b6000600281111561075d577f4e487b7100000000000000000000000000000000000000000000000000000000600052602160045260246000fd5b6002600085815260200190815260200160002060003373ffffffffffffffffffffffffffffffffffffffff1673ffffffffffffffffffffffffffffffffffffffff16815260200190815260200160002060009054906101000a900460ff1660028111156107f3577f4e487b7100000000000000000000000000000000000000000000000000000000600052602160045260246000fd5b14610833576040517f08c379a000000000000000000000000000000000000000000000000000000000815260040161082a9061130a565b60405180910390fd5b816002600085815260200190815260200160002060003373ffffffffffffffffffffffffffffffffffffffff1673ffffffffffffffffffffffffffffffffffffffff16815260200190815260200160002060006101000a81548160ff021916908360028111156108cc577f4e487b7100000000000000000000000000000000000000000000000000000000600052602160045260246000fd5b0217905550600360003373ffffffffffffffffffffffffffffffffffffffff1673ffffffffffffffffffffffffffffffffffffffff16815260200190815260200160002083908060018154018082558091505060019003906000526020600020016000909190919091505560008381548110610971577f4e487b7100000000000000000000000000000000000000000000000000000000600052603260045260246000fd5b9060005260206000209060050201600101600081548092919061099390611495565b91905055507f053097d2b098f2c63a6a29550e720c5a78ca19680a49a97de7fcb28513022d83836040516109c791906113a5565b60405180910390a1505050565b600160009054906101000a900473ffffffffffffffffffffffffffffffffffffffff1673ffffffffffffffffffffffffffffffffffffffff163373ffffffffffffffffffffffffffffffffffffffff1614610a64576040517f08c379a0000000000000000000000000000000000000000000000000000000008152600401610a5b9061136a565b60405180910390fd5b6000821415610aa8576040517f08c379a0000000000000000000000000000000000000000000000000000000008152600401610a9f906112ca565b60405180910390fd5b428111610aea576040517f08c379a0000000000000000000000000000000000000000000000000000000008152600401610ae19061132a565b60405180910390fd5b60006040518060a001604052808481526020016000815260200142815260200183815260200160001515815250905060008190806001815401808255809150506001900390600052602060002090600502016000909190919091506000820151816000015560208201518160010155604082015181600201556060820151816003015560808201518160040160006101000a81548160ff02191690831515021790555050507ffee0e60eeebc66d5b75f6f63cfc6357a7e02f30489731f433cc303f8db478c6181604051610bbe919061138a565b60405180910390a1505050565b610bd3610d9b565b60008281548110610c0d577f4e487b7100000000000000000000000000000000000000000000000000000000600052603260045260246000fd5b90600052602060002090600502016040518060a0016040529081600082015481526020016001820154815260200160028201548152602001600382015481526020016004820160009054906101000a900460ff1615151515815250509050919050565b600160009054906101000a900473ffffffffffffffffffffffffffffffffffffffff1673ffffffffffffffffffffffffffffffffffffffff163373ffffffffffffffffffffffffffffffffffffffff1614610d00576040517f08c379a0000000000000000000000000000000000000000000000000000000008152600401610cf79061136a565b60405180910390fd5b6000805490508210610d47576040517f08c379a0000000000000000000000000000000000000000000000000000000008152600401610d3e906112ea565b60405180910390fd5b8060008381548110610d82577f4e487b7100000000000000000000000000000000000000000000000000000000600052603260045260246000fd5b9060005260206000209060050201600001819055505050565b6040518060a00160405280600080191681526020016000815260200160008152602001600081526020016000151581525090565b600081359050610dde81611652565b92915050565b600081359050610df381611669565b92915050565b600081359050610e0881611679565b92915050565b60008060408385031215610e2157600080fd5b6000610e2f85828601610dcf565b9250506020610e4085828601610df9565b9150509250929050565b600060208284031215610e5c57600080fd5b6000610e6a84828501610df9565b91505092915050565b60008060408385031215610e8657600080fd5b6000610e9485828601610df9565b9250506020610ea585828601610dcf565b9150509250929050565b60008060408385031215610ec257600080fd5b6000610ed085828601610df9565b9250506020610ee185828601610de4565b9150509250929050565b6000610ef78383611117565b60a08301905092915050565b6000610f0f83836111e7565b60208301905092915050565b610f2481611443565b82525050565b6000610f35826113e0565b610f3f8185611410565b9350610f4a836113c0565b8060005b83811015610f7b578151610f628882610eeb565b9750610f6d836113f6565b925050600181019050610f4e565b5085935050505092915050565b6000610f93826113eb565b610f9d8185611421565b9350610fa8836113d0565b8060005b83811015610fd9578151610fc08882610f03565b9750610fcb83611403565b925050600181019050610fac565b5085935050505092915050565b610fef81611455565b82525050565b610ffe81611455565b82525050565b61100d81611461565b82525050565b61101c81611461565b82525050565b600061102f601283611432565b915061103a8261150d565b602082019050919050565b6000611052601983611432565b915061105d82611536565b602082019050919050565b6000611075602083611432565b91506110808261155f565b602082019050919050565b6000611098600d83611432565b91506110a382611588565b602082019050919050565b60006110bb602a83611432565b91506110c6826115b1565b604082019050919050565b60006110de601283611432565b91506110e982611600565b602082019050919050565b6000611101601d83611432565b915061110c82611629565b602082019050919050565b60a08201600082015161112d6000850182611004565b50602082015161114060208501826111e7565b50604082015161115360408501826111e7565b50606082015161116660608501826111e7565b5060808201516111796080850182610fe6565b50505050565b60a0820160008201516111956000850182611004565b5060208201516111a860208501826111e7565b5060408201516111bb60408501826111e7565b5060608201516111ce60608501826111e7565b5060808201516111e16080850182610fe6565b50505050565b6111f08161148b565b82525050565b6111ff8161148b565b82525050565b600060208201905061121a6000830184610f1b565b92915050565b6000604082019050818103600083015261123a8185610f2a565b9050818103602083015261124e8184610f88565b90509392505050565b600060a08201905061126c6000830188611013565b61127960208301876111f6565b61128660408301866111f6565b61129360608301856111f6565b6112a06080830184610ff5565b9695505050505050565b600060208201905081810360008301526112c381611022565b9050919050565b600060208201905081810360008301526112e381611045565b9050919050565b6000602082019050818103600083015261130381611068565b9050919050565b600060208201905081810360008301526113238161108b565b9050919050565b60006020820190508181036000830152611343816110ae565b9050919050565b60006020820190508181036000830152611363816110d1565b9050919050565b60006020820190508181036000830152611383816110f4565b9050919050565b600060a08201905061139f600083018461117f565b92915050565b60006020820190506113ba60008301846111f6565b92915050565b6000819050602082019050919050565b6000819050602082019050919050565b600081519050919050565b600081519050919050565b6000602082019050919050565b6000602082019050919050565b600082825260208201905092915050565b600082825260208201905092915050565b600082825260208201905092915050565b600061144e8261146b565b9050919050565b60008115159050919050565b6000819050919050565b600073ffffffffffffffffffffffffffffffffffffffff82169050919050565b6000819050919050565b60006114a08261148b565b91507fffffffffffffffffffffffffffffffffffffffffffffffffffffffffffffffff8214156114d3576114d26114de565b5b600182019050919050565b7f4e487b7100000000000000000000000000000000000000000000000000000000600052601160045260246000fd5b7f50726f706f73616c2068617320656e6465640000000000000000000000000000600082015250565b7f50726f706f73616c206d75737420686176652061206e616d6500000000000000600082015250565b7f5370656369666965642070726f706f73616c20646f65736e2774206578697374600082015250565b7f416c726561647920766f74656400000000000000000000000000000000000000600082015250565b7f456e642064617465206d7573742062652067726561746572207468616e20637560008201527f7272656e74206461746500000000000000000000000000000000000000000000602082015250565b7f50726f706f73616c20697320636c6f7365640000000000000000000000000000600082015250565b7f4e6f7420616c6c6f77656420746f20646f207468697320616374696f6e000000600082015250565b61165b81611461565b811461166657600080fd5b50565b6003811061167657600080fd5b50565b6116828161148b565b811461168d57600080fd5b5056fea26469706673582212209eb2cf27663ba84035d56ee64eb750e2166a6cbb36f9aec6cf5d5f9394f63f8564736f6c63430008020033",
  "immutableReferences": {},
  "source": "// SPDX-License-Identifier: MIT\r\npragma solidity ^0.8.2;\r\n\r\ncontract Voting\r\n{\r\n    // define the votes possibilities\r\n    enum Vote { UNDEFINED, YES, NO }\r\n    \r\n    // events\r\n    event CreateProposal(Proposal proposal);\r\n    event UserVote(uint256 proposal);\r\n    event Close(uint256 proposal);\r\n    \r\n    // represents a proposal\r\n    struct Proposal\r\n    {\r\n        bytes32 name;\r\n        uint256 voteCount;\r\n        uint256 startDate;\r\n        uint256 endDate;\r\n        bool closed;\r\n    }\r\n    \r\n    // all proposals\r\n    Proposal[] public proposals;\r\n    address public owner;\r\n    \r\n    // proposal => user => vote\r\n    mapping(uint256 => mapping(address => Vote)) voted;\r\n    \r\n    // address => proposals\r\n    mapping(address => uint256[]) userVotes;\r\n    \r\n    modifier proposalOpened(uint256 _proposal) \r\n    {\r\n        require(proposals[_proposal].closed == false, \"Proposal is closed\");\r\n        require(block.timestamp <= proposals[_proposal].endDate, \"Proposal has ended\");\r\n        _;\r\n    }\r\n    \r\n    modifier onlyOwner()\r\n    {\r\n        require(msg.sender == owner, \"Not allowed to do this action\");\r\n        _;\r\n    }\r\n    \r\n    constructor()\r\n    {\r\n        owner = msg.sender;\r\n    }\r\n    \r\n    // create a new proposal, can only be called by owner\r\n    function create(bytes32 _proposalName, uint256 _endDate) public onlyOwner\r\n    {\r\n        require(_proposalName != '', \"Proposal must have a name\");\r\n        require(_endDate > block.timestamp, \"End date must be greater than current date\");\r\n        \r\n        Proposal memory proposal = Proposal({\r\n            name: _proposalName,\r\n            voteCount: 0,\r\n            startDate: block.timestamp,\r\n            endDate: _endDate,\r\n            closed: false\r\n        });\r\n        \r\n        proposals.push(proposal);\r\n        emit CreateProposal(proposal);\r\n    }\r\n    \r\n    // close a proposal, can only be called by owner and proposal must be opened\r\n    function close(uint256 _proposal) public onlyOwner proposalOpened(_proposal)\r\n    {\r\n        require(_proposal < proposals.length, \"Specified proposal doesn't exist\");\r\n        proposals[_proposal].closed = true;\r\n\r\n        emit Close(_proposal);\r\n    }\r\n    \r\n    // update a proposal, can only be called by owner\r\n    function update(uint256 _proposal, bytes32 _proposalName) public onlyOwner\r\n    {\r\n        require(_proposal < proposals.length, \"Specified proposal doesn't exist\");\r\n        proposals[_proposal].name = _proposalName;\r\n    }\r\n    \r\n    // vote for a specific proposal\r\n    function vote(uint256 _proposal, Vote _vote) proposalOpened(_proposal) public\r\n    {\r\n        require(voted[_proposal][msg.sender] == Vote.UNDEFINED, \"Already voted\");\r\n        \r\n        voted[_proposal][msg.sender] = _vote;\r\n        userVotes[msg.sender].push(_proposal);\r\n        proposals[_proposal].voteCount++;\r\n        \r\n        emit UserVote(_proposal);\r\n    }\r\n    \r\n    // get contract information (proposals, userVotes)\r\n    function getProposalsAndUserVotes() external view returns (Proposal[] memory, uint256[] memory)\r\n    {\r\n        return (proposals, userVotes[msg.sender]);\r\n    }\r\n    \r\n    // get one proposal\r\n    function getProposal(uint256 _proposal) external view returns (Proposal memory)\r\n    {\r\n        return proposals[_proposal];\r\n    }\r\n}",
  "sourcePath": "C:/Users/33631/Desktop/Voting/contracts/Voting.sol",
  "compiler": {
    "name": "solc",
    "version": "0.8.2+commit.661d1103.Emscripten.clang"
  },
  "schemaVersion": "3.3.4",
  "updatedAt": "2021-03-27T10:58:59.863Z",
  "networkType": "ethereum",
  "devdoc": {
    "kind": "dev",
    "methods": {},
    "version": 1
  },
  "userdoc": {
    "kind": "user",
    "methods": {},
    "version": 1
  }
}